:020000040800F2
:1000000028070020CD0100083D170008151600083C
:100010003917000889020008751800080000000060
:10002000000000000000000000000000451700086C
:100030008D02000800000000411700084917000861
:10004000E7010008E7010008E7010008E7010008F0
:10005000E7010008E7010008E7010008E7010008E0
:10006000E7010008E7010008E7010008E7010008D0
:10007000E7010008E7010008E7010008E7010008C0
:10008000E7010008E7010008E7010008E7010008B0
:10009000E7010008E7010008E7010008E7010008A0
:1000A000E7010008E7010008E7010008E701000890
:1000B000E7010008E7010008E7010008E701000880
:1000C000E7010008E7010008E7010008E701000870
:1000D000E70100085D18000869180008E70100083A
:1000E000E7010008E7010008E7010008E701000850
:1000F000E7010008E7010008E7010008E701000840
:10010000E7010008E7010008E7010008E70100082F
:10011000E7010008E7010008E7010008E70100081F
:10012000E7010008E7010008E7010008E70100080F
:1001300000F002F800F03AF80AA090E8000C8244BF
:100140008344AAF10107DA4501D100F02FF8AFF29C
:10015000090EBAE80F0013F0010F18BFFB1A43F0A5
:1001600001031847D81C0000F81C0000103A24BFF7
:1001700078C878C1FAD8520724BF30C830C144BF0C
:1001800004680C607047000000230024002500264E
:10019000103A28BF78C1FBD8520728BF30C148BFEA
:1001A0000B6070471FB51FBD10B510BD00F031F8D2
:1001B0001146FFF7F7FF01F0C7FB00F04FF803B45B
:1001C000FFF7F2FF03BC00F057F800000948804732
:1001D00009480047FEE7FEE7FEE7FEE7FEE7FEE729
:1001E000FEE7FEE7FEE7FEE704480549054A064B41
:1001F000704700004D170008310100082801002059
:10020000280700202803002028030020704770479B
:100210007047754600F02CF8AE4605006946534617
:1002200020F00700854618B020B5FFF7DDFFBDE8D8
:1002300020404FF000064FF000074FF000084FF04D
:10024000000BAC46ACE8C009ACE8C009ACE8C0099A
:10025000ACE8C00921F007018D46704710B504468F
:10026000AFF300802046BDE81040FFF7A8BF0000B4
:10027000004870472800002001491820ABBEFEE767
:100280002600020070470000FEE7000070470000F3
:10029000EFF3108072B600BFFEE70000014690F851
:1002A0002100022816D10868D1E90FC3026822F0A4
:1002B0000E020260026822F001020260012000FAD0
:1002C00003F2CCF8042081F821000020002281F8FC
:1002D00020207047042088630120002281F820201C
:1002E0007047000080B590F82110022928D10268DB
:1002F00040F2040C1368C4F2020C23F00E031360E6
:1003000013680CF17C018A4223F0010111601BD9B2
:1003100040F20841C4F202018A4249D040F21C4135
:10032000C4F202018A4247D040F23041C4F20201D5
:100330008A4245D14FF48073CCF800345DE000BFB1
:1003400004218163012080BD4321C4F202018A425D
:100350000EDD6B21C4F202018A421BDC4421C4F28F
:1003600002018A423CD05821C4F202018A4233E0A1
:100370000821C4F202018A4236D01C21C4F20201D3
:100380008A4237D03021C4F202018A4224D14FF48C
:10039000807230E06C21C4F202018A4226D08021B2
:1003A000C4F202018A4217D14FF0807223E000BFED
:1003B0000123CCF8003420E01023CCF800341CE0FA
:1003C0000CF588614FF480338A4208BF4FF48053A4
:1003D000CCF8003411E000BF4FF480320BE000BFD6
:1003E0004FF4805207E000BF012204E04FF4801276
:1003F00001E000BF1022CCF80020012180F821107C
:10040000426B002180F820100AB190470021084675
:1004100080BD0000B0B5044600F01CF9054640F26E
:100420001800C2F200000078611C18BF044400BF2D
:1004300000F010F9401BA042FAD3B0BD2DE9F04FF7
:1004400082B0D1F800C0BCF1000F00F0F180A0F143
:10045000804241F60045A2F58432C4F2010540F223
:10046000004E4FEAB2240627A842C4F2010E08BF8C
:100470000527052C4FF000044FF001084FF00F0343
:100480004FF0000A4FF0000B38BF4FEAB227009739
:100490000AE000BFD1F800C00AF1010A3CFA0AF2F2
:1004A00004F1040400F0C48008FA0AF91CEA090FF8
:1004B000F0D04E684FF6FF72C1F21002964211DC86
:1004C000122E55D8DFE806F0340A444854545454E8
:1004D0005454545454545454544C5000D1F80CB007
:1004E00046E000BF4FF6FF72C1F2210296420FDCD8
:1004F0000022C1F2110296421AD00022C1F2120269
:10050000964215D00022C1F22102964210D02FE06F
:100510000022C1F2220296420AD00022C1F2310228
:10052000964205D00022C1F23202964220D100BF8D
:100530008A684AB1012A14BFC0F81490C0F810901C
:100540004FF0080B14E000BF4FF0040B10E000BFA9
:10055000CA6802F1080B0BE04FF0000B08E000BF87
:10056000CA6802F1040B03E0CA6802F10C0B00BF79
:1005700022460646BAF1080F24BF203A04363768EF
:1005800003FA02F5AF430BFA02F23A433260CA793A
:10059000D2067FF57FAF41F21807C4F202073A682E
:1005A0004FF6084342F001023A603A68CFF6FF7313
:1005B00002F001020192019A2AF0030272440F250F
:1005C000D75804F00C06B540AF43009D05FA06F677
:1005D0003743D7504E6840F20C45F202DEF808204F
:1005E00054BF22EA090242EA0902CEF80820C4F206
:1005F00001052A68B70254BF22EA090242EA090249
:100600002A60DEF80420B70354BF22EA090242EA56
:100610000902CEF804200F23DEF80020F70354BFB0
:1006200022EA090242EA0902CEF8002032E700BFBE
:1006300002B0BDE8F08F0000C26802EA01039143F6
:1006400041EA034101617047002A08BF09040161C2
:100650007047000040F22410C2F2000000687047AA
:1006600040F2180040F22411C2F20000C2F2000170
:1006700000780A68104408607047000080B542F2B4
:100680000000C4F20200016841F010010160032083
:1006900000F08CF80F2000F005F800F027F800209B
:1006A00080BD000070B540F21806C2F2000640F2AC
:1006B00020013278C2F200014FF47A730968B3FB6B
:1006C000F2F20446B1FBF2F1084600F061FB0F2C98
:1006D0004FF0010508D838B94FF0FF30214600220D
:1006E000002500F037F87460284670BD82B041F2F2
:1006F0001800C4F20200016841F0010101600168C4
:1007000001F0010101910199416841F0805141607E
:10071000406800F08050009000980420C4F201006E
:10072000016821F0E061016002B07047002848BF15
:100730007047C1B200F01F00012202FA00F04EF231
:100740000012CEF2000242EAD10121F0030108605A
:100750007047000010B54EF60C5CCEF2000CDCF8D1
:100760000030C3F3022E8EF00704042C28BF0424AB
:10077000BEF103034FF0FF3E0EFA04F438BF00232E
:10078000A14399400EFA03F39A43114300F00F027C
:1007900000F160430901043A03F564436244002810
:1007A00048BF02F10C03197010BD00004EF60C5149
:1007B000CEF200010A684FF6FF031A4060F30A22E6
:1007C00042F0806040F0FD70086070472DE9F04312
:1007D00081B0002800F0858042F20008C4F20208CF
:1007E0000446D8F800000D4600F0070088420CD2FD
:1007F000D8F8000020F007002843C8F80000D8F817
:10080000000000F00700A8426BD1206841F2040903
:100810008107C4F2020917D5410705D5D9F80010A0
:1008200041F4E061C9F80010010705D5D9F80010BE
:1008300041F46051C9F80010D9F80010A26821F005
:10084000F0011143C9F80010C00741D1D8F80000E9
:1008500000F00700A8420CD9D8F8000020F00700EB
:100860002843C8F80000D8F8000000F00700A842AC
:1008700037D12068410707D5D9F80010E26821F484
:10088000E0611143C9F80010000708D5D9F800004D
:10089000216920F4605040EAC100C9F80000D9F88D
:1008A000002002F00C00082841F20020C0F27A007B
:1008B00050D141F62C63C2F38341C0F60003595C6A
:1008C000D2033BD440F60010C0F23D00484341E063
:1008D000606802280AD001282AD159F8041C89032B
:1008E00008D4012001B0BDE8F08300BF59F8041C12
:1008F0008901F6D5D9F8001021F003010843C9F8A1
:100900000000FFF7A7FE064641F28837D9F800003D
:10091000616800F00C00B0EB810F97D0FFF79AFEF2
:10092000801BB842F2D9032001B0BDE8F08300BFBC
:1009300059F8041C8907D4D5DCE700BFD9F800209A
:1009400041F62A63C2F34042C0F600039A5C484372
:10095000B0FBF2F0D9F8001041F61262C1F30311B6
:10096000C0F60002515C40F2200220FA01F140F290
:100970001C00C2F200000068C2F200021160FFF722
:1009800091FE002001B0BDE8F083000040F220009D
:1009900041F20401C2F20000C4F2020100680968D9
:1009A00041F62262C1F30221C0F60002515CC84048
:1009B0007047000040F2200041F20401C2F2000042
:1009C000C4F202010068096841F62262C1F3C22143
:1009D000C0F60002515CC840704700002DE9F041AC
:1009E00082B0002868D00446007841F20006C007B3
:1009F000C4F2020625D0706800F00C0004281BD059
:100A0000706800F00C00082802D17068C00313D48D
:100A10006068002800F06881B0F5A02F00F07C81AC
:100A2000B0F5803F00F07C81306820F48030306089
:100A3000306820F4802076E13068800301D560685A
:100A4000D0B32078800718D5706810F00C0F07D04D
:100A5000706800F00C0008286ED17068C0036BD479
:100A60003068800702D52069012825D13068616986
:100A700020F0F80040EAC1003060207800071FD461
:100A80002078400732D4E56995B1706800F00C0019
:100A9000082840F08F80012D0ED07068216A00F484
:100AA00080328A4208D1616A00F47010884203D112
:100AB000002002B0BDE8F081012002B0BDE8F08165
:100AC000A069002862D00020C4F242200121C0F8B1
:100AD0008014FFF7BFFD0546706A800700F18C8027
:100AE000FFF7B8FD401B0228F6D92AE1F06910F0A3
:100AF000805808D1F06940F08050F061F06900F052
:100B000080500090009847F20007C4F20007386850
:100B1000C00529D4386840F480703860FFF79AFD2A
:100B2000054600BF3868C0051ED4FFF793FD401B83
:100B30006428F7D905E100BF2069002840F20000D1
:100B4000C4F2422000F0828001210160FFF782FDA3
:100B5000054600BF306880073FF588AFFFF77AFD94
:100B6000401B0228F6D9ECE0E068002800F0808005
:100B7000052800F09780012800F09880306A20F066
:100B800001003062306A20F0040092E00020C4F2DC
:100B900042200021C0F88014FFF75CFD054600BF2D
:100BA000706A80077FF56CAFFFF754FD401B022889
:100BB000F6D9C6E00027C4F2422700203866FFF7C6
:100BC00049FD022D05460BD13068800140F1BE8001
:100BD000FFF740FD401B02284FF00300F4D968E7FF
:100BE000306880017FF564AFFFF734FD401B0228B9
:100BF0004FF00300F4D95CE740F22000C2F200009D
:100C0000006844F6D351C1F26201A0FB0101480A19
:100C1000019000BF00BF0198411E002801913FF4E0
:100C20002FAF00BF0198411E002801913FF428AF6B
:100C300000BF0198411E002801913FF421AF00BF81
:100C40000198411E00280191E4D119E700210160BB
:100C5000FFF700FD054600BF306880077FF50DAF48
:100C6000FFF7F8FC401B02284FF00300F4D920E7FF
:100C7000306A20F001003062306A20F004003062F7
:100C8000FFF7E8FC054641F2883700BF306A80076D
:100C900020D5FFF7DFFC401BB8424FF00300F5D929
:100CA00007E700BF306A40F004003062306A40F06D
:100CB00001003062FFF7CEFC054641F2883700BFE5
:100CC000306A800706D4FFF7C5FC401BB842F7D94D
:100CD00037E000BFB8F1000F7FF4D5AEF06920F027
:100CE0008050F061CFE600BF306820F48030306083
:100CF000306820F480203060FFF7ACFC054600BF70
:100D0000306880037FF59DAEFFF7A4FC401B64288C
:100D10004FF00300F4D9CCE6306840F48020306016
:100D2000306840F480303060FFF794FC054600BF27
:100D3000306880033FF585AEFFF78CFC401B6428CC
:100D4000F6D9032002B0BDE8F08100BF206AB0F5FB
:100D5000803F05D17168A26821F4003111437160B0
:100D60007168626A21F474111143084370600120B4
:100D70003866FFF76FFC0446306880013FF598AE97
:100D8000FFF768FC001B02284FF00300F4D990E63F
:100D9000411E0020B0EB116F1CBF012070474EF2C6
:100DA0001002CEF2000251604EF62351CEF2000145
:100DB000F0230B70072190601160704770470000AE
:100DC00070470000B0B582B0044600680168C3688F
:100DD000426901F02F05202D03F0200506D12DB129
:100DE000204602B0BDE8B04000F0B8BC5FEA017C2C
:100DF0001EBF02F0010E03F4907212EB0E0253D1EB
:100E0000226B012A05D111F0100218BF13F0100255
:100E100036D10A0622D513F080021FD094F8411073
:100E200021293FD1A168B1F5805F03D12169002953
:100E300000F07082216A4A1C226209784160E18CCC
:100E400001390A04E1842DD1C16821F08001C1601B
:100E5000C16841F04001C16002B0B0BD490621D572
:100E600013F040011ED0C16821F04001C160202173
:100E7000204684F8411002B0BDE8B04000F0C8BB85
:100E80000021019101680191416801910199406936
:100E9000400613D4A08DE18DE28D002A18BF884250
:100EA00040F0BA8102B0B0BDCA0718BF13F4807217
:100EB00040F0B6804A0700F1B980BEE0E06B0168FF
:100EC00049688AB2002AEDD0A38D9A42EAD2E18520
:100ED0008069202800F09C80206850E8030F21687A
:100EE00020F4807041E80302DAB1206850E8030F73
:100EF000216820F4807041E8030292B1206850E834
:100F0000030F216820F4807041E803024AB1206891
:100F100050E8030F216820F4807041E80302002AA2
:100F2000DAD1206850E8050F216820F0010041E87F
:100F30000502DAB1206850E8050F216820F00100B1
:100F400041E8050292B1206850E8050F216820F0C1
:100F5000010041E805024AB1206850E8050F216808
:100F600020F0010041E80502002ADAD1206850E8AB
:100F7000050F216820F0400041E80502DAB1206841
:100F800050E8050F216820F0400041E8050292B1C9
:100F9000206850E8050F216820F0400041E8050274
:100FA0004AB1206850E8050F216820F0400041E870
:100FB0000502002ADAD1202084F8420000202063B4
:100FC000206850E8030F216820F0100041E8030278
:100FD000DAB1206850E8030F216820F0100041E8E2
:100FE000030292B1206850E8030F216820F010003E
:100FF00041E803024AB1206850E8030F216820F05D
:10100000100041E80302002ADAD1E06BFFF746F94D
:1010100002206063A08DE18D401A81B2204674E108
:10102000626C42F0010262644A0706D5BEF1000F0D
:1010300003D0626C42F0020262648A0706D5BEF1F8
:10104000000F03D0626C42F004026264BCF1000F36
:1010500009D545EA0E02B2FA82F2520903D1626C56
:1010600042F008026264626C002A3FF41BAF11F088
:10107000200118BF002D03D0204600F06FFB206830
:101080004069616C00F0400001F00801401800F078
:10109000B58000BF206850E8030F216820F49070ED
:1010A00041E80302BAB3206850E8030F216820F436
:1010B000907041E8030272B3206850E8030F216882
:1010C00020F4907041E803022AB3206850E8030F2F
:1010D000216820F4907041E80302002ADAD11AE076
:1010E000206850E8050F216820F0010041E8050262
:1010F000DAB1206850E8050F216820F0010041E8CE
:10110000050292B1206850E8050F216820F0010027
:1011100041E805024AB1206850E8050F216820F037
:10112000010041E80502002ADAD1206B012824D110
:10113000206850E8030F216820F0100041E8030206
:10114000DAB1206850E8030F216820F0100041E870
:10115000030292B1206850E8030F216820F01000CC
:1011600041E803024AB1206850E8030F216820F0EB
:10117000100041E80302002ADAD1202084F842005E
:10118000002020632068406940063FD5206850E871
:10119000050F216820F0400041E80502DAB120681F
:1011A00050E8050F216820F0400041E8050292B1A7
:1011B000206850E8050F216820F0400041E8050252
:1011C0004AB1206850E8050F216820F0400041E84E
:1011D0000502002ADAD1E06BC0B141F25171C0F6CC
:1011E00000014163FFF77EF800283FF45BAEE06B3F
:1011F000416B02B0BDE8B040084700BF2046FFF792
:10120000DFFD0020606402B0B0BD00BF204602B028
:10121000BDE8B040FFF7D4BD401A216851E8031F74
:10122000226821F4907142E80313DBB1216851E890
:10123000031F226821F4907142E8031393B12168DF
:1012400051E8031F226821F4907142E803134BB167
:10125000216851E8031F226821F4907142E80313CA
:10126000002BDAD1216851E8051F226821F0010125
:1012700042E80513DBB1216851E8051F226821F01F
:10128000010142E8051393B1216851E8051F226866
:1012900021F0010142E805134BB1216851E8051F17
:1012A000226821F0010142E80513002BDAD1202148
:1012B00084F8421000212163216851E8031F22684D
:1012C00021F0100142E80313DBB1216851E8031F4C
:1012D000226821F0100142E8031393B1216851E81C
:1012E000031F226821F0100142E803134BB121686B
:1012F00051E8031F226821F0100142E80313002B7C
:10130000DAD1022281B22046626302B0BDE8B04069
:10131000FFF754BD216A31F8022B6FF35F22426060
:1013200021628CE5002804BF0120704710B50446F7
:1013300090F8410028B9002084F84000204600F0D1
:1013400063F8242084F841002068D4E90212C368BD
:1013500023F40053C360036923F440531A4302612A
:10136000D4E904231143C268194341F20C639A4340
:101370001143C1604169A26921F44071114343F6F0
:101380000002C4F201029042416103D0FFF7FEFA6D
:1013900002E000BFFFF70EFB62681921484391008D
:1013A000B0FBF1F048F21F51C5F2EB11A0FB012395
:1013B0005A094FF69C73C0F6FF7302FB03003223F9
:1013C00003EB0010A0FB0101F02303EA5113206896
:1013D00003EB0212C1F3431111448160016921F44E
:1013E00090410161416921F02A014161C16841F4E4
:1013F0000051C16000202021606484F8411084F80D
:101400004210606310BD0000F0B585B0006844F282
:101410000041C4F2000188424FF00001CDE9031100
:10142000CDE9011122D043F60001C4F20101884246
:1014300053D141F21800C4F202000168252441F49E
:101440008041016001684FF4806701F480410091A0
:101450000099016841F004010160006800F0040097
:10146000009000984FF4007019E000BF41F218009E
:10147000C4F202004168262441F400314160416811
:10148000082701F4003100910099016841F004013E
:101490000160006800F004000090009804200190B2
:1014A000022040F6000502900320C4F2010501AEBF
:1014B000049028463146FEF7C1FF0020CDE9020026
:1014C000284631460197FEF7B9FF20460021002249
:1014D000FFF740F92046FFF729F905B0F0BD0000FD
:1014E00090F84230202B1CBF0220704700294FF09B
:1014F000010318BF002A01D1184670470023036377
:10150000816222218285C285436480F8421001698C
:10151000006819B1C16841F48071C160416900235C
:1015200041F001014161C16841F02001C1601846EC
:101530007047000010B540F29401C2F200018842E9
:1015400024D040F2DC01C2F20001884218BF10BD75
:1015500040F20004C2F2000440F2DC00211DC2F29D
:1015600000000422FFF7BCFF606800BA00F0FCFA3C
:1015700004F10E01206000F07FF941F60000C4F292
:1015800001002021BDE81040FFF756B840F2880462
:10159000C2F20004207840F20001C2F20001D4F847
:1015A00001208873D4F80500C1F80F20627AC1F8D1
:1015B000130041F60000CA75C4F201002021FFF7B4
:1015C0003BF840F29400C2F2000021460A22BDE836
:1015D0001040FFF785BF0000034690F84100202827
:1015E0001CBF0220704700294FF0010018BF002ADD
:1015F00000D170471962002021219A84DA8458644E
:1016000083F841101968CA6842F08002CA607047C6
:1016100070470000FEE700002DE9F04385B041F27D
:101620001800C4F20200016840F6004941F0400190
:1016300001600168C4F2010901F0400101910199C2
:10164000016809F5406541F0100101600168002260
:1016500001F010010191019901684FF0200841F05B
:1016600004010160016801F0040101910199016820
:1016700041F0080101600068202100F0080001909D
:1016800001982846FEF7E0FF484620210022FEF799
:10169000DBFF01AE0127022428463146CDF8048045
:1016A000CDE902770494FEF7C9FE48463146CDE9FC
:1016B0000187CDE90374FEF7C1FE05B0BDE8F083F4
:1016C00080B540F2940043F60001C2F20000C4F27B
:1016D000010100234FF00C0C4FF4E13280E80E00C2
:1016E000C0E90333C0E905C3C361FFF71BFE00284F
:1016F00008BF80BDBDE88040FEF7CABD80B540F29E
:10170000DC0044F20041C2F20000C4F200010023F8
:101710004FF00C0C4FF4E13280E80E00C0E90333C7
:10172000C0E905C3C361FFF7FDFD002808BF80BD08
:10173000BDE88040FEF7ACBDFEE70000FEE700001C
:101740007047000070470000FEF78ABF7047000036
:10175000406A0021C185C184FFF732BB81B090F897
:101760004210222921D183680246B3F5805F09D156
:1017700052F8281F52F8183C002B63D003685B68AE
:101780000AE000BF52F8281F13B90369002BF5D0F7
:1017900003685B6803F07F030B701168013111600F
:1017A000C18D01390A04C18502D001B0704700BF64
:1017B0000168CA6822F02002CA60CA6822F48072F6
:1017C000CA604A6922F001024A61202180F8421071
:1017D00000214163026B012A3CD10163016851E899
:1017E000031F026821F0100142E80313DBB1016816
:1017F00051E8031F026821F0100142E8031393B17E
:10180000016851E8031F026821F0100142E8031348
:101810004BB1016851E8031F026821F0100142E852
:101820000313002BDAD101680A68D20606D500221C
:1018300000920A680092496800910099818D01B078
:10184000FFF7BCBA026852686FF35F2221F8022BDF
:101850008162A5E701B0FFF76DBE000040F2940081
:10186000C2F20000FFF7AEBA40F2DC00C2F20000A4
:10187000FFF7A8BAFEE7000070B50C46054600F079
:101880003FF9064600F058F90146284600F04CFAA8
:1018900006F13001002521702E21C4F2201561705F
:1018A000294600F075F9064600F02AF900F13001EA
:1018B000A17000F041F90146304600F035FA2946A2
:1018C00000F066F9064600F01BF900F13001E17006
:1018D00000F032F90146304600F026FA294600F0C1
:1018E00057F9064600F00CF900F13001217100F0C3
:1018F00023F90146304600F017FA294600F048F96E
:10190000064600F0FDF800F13001617100F014F9B5
:101910000146304600F008FA294600F039F906463B
:1019200000F0EEF800F13001A17100F005F9014678
:10193000304600F0F9F9294600F02AF900F0E0F805
:101940003030E07170BD000090B040F60048C4F245
:101950000108FEF793FE4046202101220125FEF7F3
:1019600073FE0024CDE90B44CDE9094406954FF4FC
:1019700080300A950225CDE90704CDE90D504FF4DA
:10198000E0100F9006A8FFF729F828B1EFF31080B8
:1019900072B600BFFEE700BF0F20CDE901054FF48E
:1019A0008060CDE9040401A802210394FEF70EFF34
:1019B00020B1EFF3108072B6FEE700BFFFF72CFEF8
:1019C000FFF77EFEFFF79AFE40F20007C2F2000723
:1019D00040F2DC00391DC2F200000A22FFF780FD50
:1019E00040F29405C2F2000540F28801C2F2000103
:1019F00028460A22FFF774FD394651F80E0BFFF70F
:101A00003BFF0024C3F630143E4646F80E4F2846EE
:101A100031460422FFF7E0FD4FF47A70FEF7FAFC3E
:101A2000284631460422FFF7D7FD40462021FEF725
:101A300003FE4FF47A70FEF7EDFCE5E790EA010F44
:101A400048BF81F0004100F17681421A3CBF801A04
:101A500089184FEAD052A2EBD1534FF07F4C1CEAC9
:101A6000410F18BF9CEA026F00F03B804FF0004C22
:101A70004CEA00204CEA012121FA03FC10EB0C0C8B
:101A80001ED202F1FF325FEA1C2040EBC25038BF89
:101A900070471CF07F0F4FEA400C18BFBCF17F4F1E
:101AA00038BF7047C3F12003994008BF20F0010000
:101AB000BCF17F4F38BF7047A0F1C04000F02FB994
:101AC0004FEA3C00000A40EBC25028BF1CF0FF0F59
:101AD0004FEA400CE6D018BFBCF17F4F38BF7047CB
:101AE000EAE79CEA026F05D010EA5C0F08BF00F03D
:101AF0000040704710B500F0CCF800BF64FBBE3E5C
:101B000041000B0ED3F19E0208D950F400034FEAB6
:101B1000032323FA02F048BF4042704710B500F09B
:101B2000B8F800BF49922480002070476FF000424F
:101B300082EA20007047000010F0004148BF404298
:101B4000B0FA80F310FA03F2C3F19D030BD051EA0F
:101B5000C35101EB1220530638BF704700F101005A
:101B600008BF20F001007047B0FA80F310FA03F2CA
:101B7000C3F19D030AD0D90501EB1220530638BFEB
:101B8000704700F1010008BF20F00100704700001D
:101B90004FF47F0C1CEAD0121EBF1CEAD11392EA4C
:101BA0000C0F93EA0C0F00F0478090EA010F48BF3A
:101BB00042F480724FF0004C4CEA00204CEA0121C4
:101BC00002EB0302A0FB0113A2F50002002918BFDB
:101BD00043F001035B0028BF4FEA330342EB22428C
:101BE0005FEA132C4CEBC2502EBFBCEB436FB2F537
:101BF0007C0F70474FEA036CBCF1004F08BF20F028
:101C00000100B2F57C0F38BF70470BD582F0FF02A0
:101C100012F5803FC8BF704700F1C040D8BF00F048
:101C20000040704700F5000C5FEA4C0C48BF70475D
:101C3000B0F1C04000F073B80CEAD11390EA010F84
:101C400048BF42F48072624538BF634504D280EADF
:101C5000010000F00040704710B500F01AF800BF16
:101C60008900013E00F007B800F009B85FEA410CB6
:101C70005FEA1C6C08D080EA010000F050B85FEA0F
:101C8000400C5FEA1C6CF6D14FF00040A0F58000DC
:101C900070470EF1020E2EF0030E5EF8044B244244
:101CA00004D44FEA4102B2F17F4F11D84FEA40030A
:101CB000B3F17F4F0CD80ED14FEAD07C0CEB4C0C1B
:101CC0000CF1020CB2F17F4F08BF4CEBD17C04E069
:101CD0004FF0080C01E04FEAD17C0CEB4C0324FAE6
:101CE00003F404F00704B4F1040C06D20EEB840CE8
:101CF000BDE810404CF0010C6047DFE80CF007082D
:101D000002024FF00040A0F5800010BD08464200DE
:101D100018BFD2F1807288BF00F0004010BDFF21D3
:101D200041EAD050C005704790EA010F48BF81F0EA
:101D300000413FF58AAE421A04D882F00042A0EB7F
:101D4000020011444FEAD052A2EBD1534FF07F4C26
:101D50001CEA410F18BF9CEA026F4AD04FF0004CBA
:101D60004CEA00204CEA012121FA03FCB0EB0C0CF8
:101D70000FD412F0FE0F36D05FEA4C001DD50012D2
:101D800040EBC25038BF70471CF03F0F18BF704780
:101D90000BE05FEA1C20A2F1010240EBC25038BF09
:101DA00070471CF07F0F18BF7047C3F120039940A4
:101DB00014BF401E20F0010070474FEA1223800834
:101DC00008BF7047B0FA80FCA2EB0C02CCF1280CE3
:101DD00060FA0CF093EA122F04BF00EBC250704778
:101DE0004FEAC3707047130A5FEADC1008BF704700
:101DF000F6E79CEA026F04D010EA5C0F08BF0020EF
:101E0000704710B5FFF745FF40DFF63E81F0004018
:101E100070470000000000000000010203040607F4
:101E20000809000000000102030401020203040586
:101E3000060708090A0B0C0D0E0F1010601E000893
:101E400000000020280000006C010008881E000827
:101E500028000020000700008801000800000000A2
:101E6000C3F54840686168610000000000006861D7
:101E70006C6C6F000000000001000000100000000A
:081E80000024F4000000000042
:0400000508000131BD
:00000001FF
